:020000040800F2
:10000000002000208D7F0008DD7F0008DD7F0008D4
:1000100000000000000000000000000000000000E0
:10002000000000000000000000000000DD7F00086C
:100030000000000000000000DD7F00089974000847
:10004000DD7F0008DD7F0008DD7F0008DD7F000820
:10005000DD7F0008DD7F0008DD7F000835650008D2
:1000600000000000DD7F0008DD7F0008DD7F000864
:10007000DD7F0008DD7F0008DD7F00080000000054
:10008000DD7F0008DD7F000800000000DD7F000844
:10009000DD7F0008DD7F0008DD7F0008DD7F0008D0
:1000A000DD7F0008DD7F0008DD7F0008F1790008B2
:1000B000DD7F0008DD7F000800000000DD7F000814
:1000C00010B5064C2378002B07D1054B002B02D02E
:1000D000044800E000BF0123237010BDBC000020D5
:1000E00000000000008E0008044B10B5002B03D068
:1000F0000349044800E000BF10BDC04600000000F6
:10010000C0000020008E00080023C25C0133002ADA
:10011000FBD1581E70470000002243088B4274D365
:1001200003098B425FD3030A8B4244D3030B8B42F8
:1001300028D3030C8B420DD3FF22090212BA030C01
:100140008B4202D31212090265D0030B8B4219D3E2
:1001500000E0090AC30B8B4201D3CB03C01A524102
:10016000830B8B4201D38B03C01A5241430B8B424A
:1001700001D34B03C01A5241030B8B4201D30B0333
:10018000C01A5241C30A8B4201D3CB02C01A52415A
:10019000830A8B4201D38B02C01A5241430A8B421D
:1001A00001D34B02C01A5241030A8B4201D30B0206
:1001B000C01A5241CDD2C3098B4201D3CB01C01A20
:1001C000524183098B4201D38B01C01A524143092A
:1001D0008B4201D34B01C01A524103098B4201D318
:1001E0000B01C01A5241C3088B4201D3CB00C01A85
:1001F000524183088B4201D38B00C01A52414308FD
:100200008B4201D34B00C01A5241411A00D2014621
:10021000524110467047FFE701B5002000F0F0F8AA
:1002200002BDC0460029F7D076E7704703460B436E
:100230007FD4002243088B4274D303098B425FD3DF
:10024000030A8B4244D3030B8B4228D3030C8B420B
:100250000DD3FF22090212BA030C8B4202D31212F1
:10026000090265D0030B8B4219D300E0090AC30BC6
:100270008B4201D3CB03C01A5241830B8B4201D373
:100280008B03C01A5241430B8B4201D34B03C01A5C
:100290005241030B8B4201D30B03C01A5241C30AD4
:1002A0008B4201D3CB02C01A5241830A8B4201D345
:1002B0008B02C01A5241430A8B4201D34B02C01A2F
:1002C0005241030A8B4201D30B02C01A5241CDD2D4
:1002D000C3098B4201D3CB01C01A524183098B421F
:1002E00001D38B01C01A524143098B4201D34B0108
:1002F000C01A524103098B4201D30B01C01A52416B
:10030000C3088B4201D3CB00C01A524183088B42F1
:1003100001D38B00C01A524143088B4201D34B00DA
:10032000C01A5241411A00D201465241104670474C
:100330005DE0CA0F00D04942031000D34042534051
:1003400000229C4603098B422DD3030A8B4212D311
:10035000FC22890112BA030A8B420CD38901921143
:100360008B4208D3890192118B4204D389013AD080
:10037000921100E08909C3098B4201D3CB01C01A55
:10038000524183098B4201D38B01C01A5241430968
:100390008B4201D34B01C01A524103098B4201D356
:1003A0000B01C01A5241C3088B4201D3CB00C01AC3
:1003B000524183088B4201D38B00C01A5241D9D2DB
:1003C00043088B4201D34B00C01A5241411A00D25C
:1003D0000146634652415B10104601D34042002B58
:1003E00000D54942704763465B1000D3404201B5D7
:1003F000002000F005F802BD0029F8D016E770478C
:100400007047C0468446100062468C461900634619
:1004100000E0C0461FB501F0EDFB002801D400212B
:10042000C8421FBD10B501F03DFB4042013010BD78
:1004300010B501F0DFFB002801DB002010BD01201A
:1004400010BDC04610B501F0D5FB002801DD00202D
:1004500010BD012010BDC04610B501F065FB00289D
:1004600001DC002010BD012010BDC04610B501F018
:100470005BFB002801DA002010BD012010BDC04642
:10048000F0B5C64643025B0A4E0245004F00DA0053
:10049000C40F9C46700A904600B52D0E3F0EC90F42
:1004A000B6098C424BD0EA1B002A36DD002F61D002
:1004B000FF2D00D1ADE08023DB041E431B2A00DCAE
:1004C000D3E001204346181A430100D48CE0800198
:1004D0008709380002F0FCFA05388740854200DCC5
:1004E000B6E02D1AB3483840430704D00F23034029
:1004F000042B00D00430430100D478E06A1CFE2DA8
:1005000065D08001430A9C46D2B26346D0051843A9
:10051000E407204380BCB846F0BD002A35D07A1BE2
:10052000002D00D0AFE04346002B00D1A7E0531EC2
:10053000012A00D12FE1FF2A69D01A00AAE0E91BA5
:10054000002970DD002F37D0FF2D62D08023DB041F
:100550001E431B2900DCB0E001204044430143D589
:100560000135FF2D33D00123934A0340400810404A
:100570001843B9E7002E00D183E0511E012A00D1B3
:10058000D8E0FF2A45D00A0098E7FE276A1C1742E8
:1005900000D086E0002D00D0B7E04346002B00D10C
:1005A000F3E00022002EB0D0981B430100D4FAE003
:1005B00043460C00F01A97E7002E00D1C8E04A1E0F
:1005C000012900D1AEE0FF2923D01100C1E70023AB
:1005D000FF229C4699E7FE216A1C114277D0FF2A30
:1005E000F5D0150046447008430700D07EE7C308E5
:1005F000FF2D0ED05B025B0A9C46EAB285E7002E17
:1006000007D08022D203134203D0104201D10C0044
:100610000300002BDBD08020C00318434002430AB4
:100620009C46FF2271E70029D5D07A1B002D60D1AE
:100630004346002B24D0531E012A73D0FF2AE7D053
:100640001A001B2A00DC85E001203D00801985E7A7
:1006500020233A00451B38000135EA405D1BA840C5
:10066000431E9841002510433EE7202330009B1A8B
:1006700031009840D140431E9841084322E70C00C6
:1006800003001500B4E7FF2FC1D080234046DB04F0
:10069000184380461B2A51DD01200C003D00301A12
:1006A00012E743469F1B7B012BD4002F00D010E79D
:1006B0000023002400229C4627E72023320030003C
:1006C000CA40591A8840431E9841104345E7002DFF
:1006D0004AD14346002B63D00022002E00D114E7FC
:1006E00030004044430100D47EE7324B01351840CE
:1006F0007AE7FF2F8CD080234146DB0419438846DC
:100700009FE743460C00F71AE3E64246002A00D072
:1007100075E7002E00D07AE78023DB0300249C4697
:10072000FF22F2E6300040440125430100D45BE79C
:10073000022518E743460125981BC5E620234446B9
:100740004046D4409A1A9040431E98412043A4E763
:100750000D004DE7202341464046D1409A1A904073
:10076000431E9841084370E74246002A00D14FE7F4
:10077000002E00D14DE78022D203134200D148E77A
:10078000104200D045E7030043E7002E90D00C0054
:1007900084460022B9E643460C00F01A013593E680
:1007A00084460022B1E6002800D01DE70023002483
:1007B0009C46AAE6FFFFFFFBFFFFFF7DF0B54F461B
:1007C0004646D64644024500C0B5640A0F1C2D0EAD
:1007D000C60F002D00D18DE0FF2D00D192E0002347
:1007E000802099469A46E400C00404437F3D780285
:1007F000430A98467B001B0EFF0F002B00D170E0D0
:10080000FF2B00D186E04246D00080227F3BED18CE
:100810000023D204024390469C4631004B46794067
:10082000681C0F2B1CD8764A9B00D3589F46390072
:100830004446E2465346022B0FD0032B00D1D7E0AB
:10084000012B37D100200024C0052043C9070843ED
:10085000E0BCBA46B146A846F0BDFF200024F3E74D
:10086000260C2404220C44462404240C434627006E
:100870001B0C574374435A435E4312193B0C9B189D
:100880009C4203D980225202944666443F041A04D3
:100890003F0CD2199401671EBC411B0C920E9B1990
:1008A00014439B011C431B0100D49BE001236208FD
:1008B0001C40144302007F32002A64DD630704D029
:1008C0000F232340042B00D00434230103D502005E
:1008D0004C4B80321C40FE2ABFDCA401640AD0B21B
:1008E000B2E74346002B3DD14A4601331A439146B5
:1008F0009C4692E7002C29D104239946033B00250E
:100900009A4674E7002C1BD108239946063BFF2525
:100910009A466CE74346FF35002B0BD102234A462B
:100920001A4391469C4678E753463100022B00D08B
:1009300083E792E703234A461A4391469C466CE7B5
:100940000C239946093BFF259A4650E7200002F008
:10095000BFF87625431F9C4000236D4299469A4676
:100960002D1A44E7404602F0B3F84246431F9A402E
:1009700000232D1A90469C46763D4EE780240021A8
:10098000FF20E40360E701239B1A1B2B00DD59E7DE
:1009900022009E30DA4084401300621E94411C43C2
:1009A000630704D00F232340042B00D004346301D9
:1009B0001AD50120002447E78020C003044209D053
:1009C0004346034206D14446044364023900FF20F3
:1009D000640A39E78020C003044364023100FF2029
:1009E000640A31E7280065E7A4010020640A2BE7C8
:1009F0008020C00304436402FF20640A24E7C04649
:100A0000788E0008FFFFFFF7F8B5CE464746430251
:100A10005B0A4E02DA009446720A914645004A008B
:100A200080B52D0E1F00C40F120EC90FB609FF2A84
:100A30005BD0012041408C4239D0A81A00285ADDF1
:100A4000002A6AD0FF2D00D1D9E08022D2041643BB
:100A50001B2800DCE9E001206346181A430100D49A
:100A6000B4E080018709380002F032F80538874089
:100A7000854200DCCCE02D1AB5483840430704D04D
:100A80000F230340042B00D00430430100D4A0E026
:100A90006A1CFE2D00D18DE08001470AD2B2D0053C
:100AA0003843E4072043C0BCB946B046F8BDA81A95
:100AB0008046002845DD002A70D0FF2D00D19EE041
:100AC0008023DB041E4343461B2B00DCD2E00120C5
:100AD000604443017AD50135FF2D6BD001239D4A37
:100AE0000340400810401843C8E7002E20D08C4235
:100AF00023D02800FF38002839D0571B002D00D004
:100B00009DE06346002B00D1DBE07B1E012F00D16E
:100B10000DE1FF2F71D01F0098E0002E00D1A7E05B
:100B2000421E012800D1E6E0FF2868D010008FE7C0
:100B300001204140A14200D07FE7FF204042804693
:100B4000A8444046002838D0511B002D00D1AEE00B
:100B5000FF2A00D1DFE080236046DB04184384468F
:100B60001B2900DCD9E0012015008019B1E7FE2027
:100B70006A1C104271D1002D00D0A6E06346002B04
:100B800000D1D9E00022002E00D188E7981B430154
:100B900000D4E1E063460C00F01A6FE7002E00D1AC
:100BA000B7E00200013A012800D19CE0FF2826D0DE
:100BB000904688E7FF22002771E7FE206A1C10425A
:100BC00064D0FF2AF6D0150066447008430700D0B1
:100BD00056E7C308FF2D12D05B025F0AEAB25EE758
:100BE0006246002A00D196E0002E08D08022D2036F
:100BF000134204D04846104201D10C004B46002B52
:100C0000D8D08027FF031F437F02FF227F0A46E7D9
:100C100020233A00451B38000135EA405D1BA840FF
:100C2000431E98410025104328E720231B1A320059
:100C30009E40C2403000431E984110430CE7FF2AFB
:100C4000DBD080236046DB04184384461B2F56DD2F
:100C500001200C001500301A00E763469F1B7B0142
:100C60003DD4002F00D0FEE600240022002716E726
:100C70000500AFE7320043464146DA4020235B1AC5
:100C80009E403000431E9841104321E7002DA7D11C
:100C90006346002B59D00022002E00D1FFE6300021
:100CA0006044430192D52A4B013518408EE76346D4
:100CB000002B47D04B1E012915D0FF292BD019003E
:100CC0004EE70C004B463D0084E76246002A8BD17C
:100CD000002E92D180270024FF22FF03DFE6634627
:100CE0000C00F71ABFE6300060440125430100D430
:100CF0006CE70225F2E663460125981BAEE6202349
:100D000064466046FC40DF1BB840431E98412043C8
:100D10009FE705005EE74B4671E720236546604686
:100D2000CD40591A8840431E984128431CE763462A
:100D30000C000125F01A91E6002E95D00C004F46CC
:100D40000022ACE64B460D0044E74F460022A6E6E3
:100D5000FFFFFFFBFFFFFF7D002800D036E70024E8
:100D600000279CE641024200C30F490A0020120EF0
:100D70007E2A03DD9D2A02DD094A981870478020EB
:100D800000040143952A07DC9620821AD14048428C
:100D9000002BF3D10800F1E7963A9140F7E7C046FF
:100DA000FFFFFF7FF8B5002813D0C317C6185E40B9
:100DB000C40F300001F08CFE9E2305001B1A962BF9
:100DC0000FDC082801DD083DAE407602760AD8B275
:100DD00002E0002400200026C0053043E407204341
:100DE000F8BD992B0CDD05223100121AD1400A0002
:100DF000010030001B318840411E8841024316002B
:100E0000052D12DC31000D4F3940720709D00F203B
:100E10003040042805D004314A0102D59F233940CF
:100E20005B1B89014E0AD8B2D6E76A1F9640310093
:100E3000024F39407207F4D0E9E7C046FFFFFFFBDD
:100E4000F0B54F464646D6460D000400C0B51F001B
:100E500011002803620F400A10437A00520DE3008C
:100E60003C039146640AFA0F4F0F6E0027439246E7
:100E7000B846760DED0FC900954200D199E04C4679
:100E8000341BA446002C00DC7CE04A46002A00D13A
:100E9000B8E0C54A964200D11CE180223C00120411
:100EA0001443A0466246382A00DD61E11F2A00DDB6
:100EB000CCE164462022121B444694400F00A14618
:100EC00064469140E7404C464A1E91413C434246AD
:100ED00021436446E240801A5C1AA3429B415F4270
:100EE000C71B3B0200D4D0E07F027F0A002F00D155
:100EF000FFE0380001F0ECFD01000839202322005A
:100F00005B1A8F40DA408C401743B14200DAFFE0B1
:100F1000891B4B1C1F2B00DDA8E020223900D21AB0
:100F2000200094409140D840621E9441DF4000264A
:100F300001430C43630709D00F232340042B05D042
:100F4000231DA342A44164423F191C003B0200D46C
:100F50009EE0954B01369E4200D1B7E0934AE408EB
:100F600017407B0771057F0223433F0B4A0D120593
:100F70003A43ED072A4318001100E0BCBA46B146D7
:100F8000A846F0BD002C4BD04C46A41BA446002E16
:100F900000D023E104001C4300D1AFE16246541E9F
:100FA000012A00D115E2804DAC4500D1C8E1A4462C
:100FB0001BE14A46B21A9446002A00DCACE04A46DD
:100FC000002A43D0784A964200D1AFE180223C000B
:100FD00012041443A0466246382A67DC1F2A00DC4C
:100FE0005FE14746203AD7406246202A05D0644652
:100FF0004022121B4446944021434A1E91410C005A
:101000003C4357E03A000A4300D105E12200013A8F
:10101000012C00D182E1644CA4455BD0944641E7A9
:10102000634C771C274200D0C4E004001C43002E10
:1010300000D069E1002C00D1BFE144460C4300D050
:10104000D0E14207DB081343C00829E03A000A4315
:1010500000D170E162466446013A012C00D1E0E023
:10106000514CA44500D161E19446B4E73A001F39E0
:10107000CA401100202B03D04022D31A9F403C438A
:10108000631E9C41002700260C43630700D053E7F2
:10109000B446E4087B072343F808434A94451DD02F
:1010A0006246070352053F0B520D60E744460C436E
:1010B000621E9441E4189C429B415F423F183B02F0
:1010C000E3D5394B01369E4200D0B5E0320000270F
:1010D00000234CE74207DB081343C0081A00024311
:1010E00000D1E1E180273F0307433F032E4A3F0B36
:1010F0003DE7200001F0ECFC010018311F2900DC65
:10110000FCE60838844027000024B14200DBFFE6FB
:10111000264A761A17400DE7002A2FD04A46921B1E
:101120009446002E00D1ADE01F4A914500D10FE159
:101130008022120410436246382A00DD0FE11F2A84
:1011400000DD80E1644620221E00121B6746040079
:1011500093409440FE405A1E9341F84034431C4350
:10116000804464188C42BF417F424E464744A6E704
:1011700042460A4311004A1E9141ADE60C4C721CD6
:10118000224200D0A1E002001A43002E00D0FAE073
:10119000002A00D145E13A000A4300D046E1420767
:1011A000DB081343C0087BE7FF070000FFFF7FFF5A
:1011B000FE07000047465C1AC21BA342BF417F42A4
:1011C000B94617004A46BF1A3A0200D58DE02300FF
:1011D0003B4300D08AE60020002561E7B44CA145DE
:1011E00000D1ADE08024240420436446382C3DDC4B
:1011F00062461F2C00DDB7E020251E002D1B0400D9
:10120000AB40AC40D640D04042465D1EAB4134437B
:10121000121A904623432CE04207DB081343C00810
:101220003BE75C189C429B4140445B42C718012647
:101230003B0200D429E702269E4A63081740012298
:1012400014401C43FB071C437F0873E64446203AC6
:10125000D4406246202A05D067464022D21B47462A
:10126000974039434A1E9141214335E60343581EB6
:101270008341CC1AA142BF4143467F4255464E4668
:10128000DF1B2EE602001A4300D1BDE06246644631
:10129000013A012C00D1E5E0854CA44558D0944694
:1012A00049E764462022121B444694400F00A146A1
:1012B00064469140E7404C464A1E91413C434246B9
:1012C0000C436146CA408018F4E6794CA24200D132
:1012D000FDE6591899429B4140445F42C719FC07FB
:1012E000490816000C437F08CFE6CC1AA142BF4143
:1012F00043467F42181A5546C71BF7E5C9087B07C6
:1013000055460B43F808C8E6002C00D081E0434660
:101310000B4315D1802000250003E3E65C1AA342AD
:101320009B41C71B5B420126FF1ADAE54207DB0837
:101330001343C008D2E64207DB081343C008ACE6FB
:1013400043464246C9085B0755460B43D008C5E6ED
:10135000434642465B07C9080B43D008BEE6034339
:101360001C00631E9C41FCE60200203CE24014008D
:101370006246202A03D04025AD1AA8400343581ED8
:101380008341234375E7002AE2D03A000A43CDD0D7
:101390004207DB0813438022C0081203104206D024
:1013A000FC08144203D12000CB087A0713435A0FDC
:1013B000DB005207DB08134390E643460B4300D1A2
:1013C00009E743464246C9085B0755460B43D00828
:1013D00066E6CC1AA14289413F1A49425546012688
:1013E0007F1A7EE542465C1A871AA3429241524216
:1013F000BF1A3A023DD5CC1AA1428941434649421F
:101400001F1A55467F1A95E57B07C9080B43F80854
:1014100043E64446DB080C4330D142071343C0087F
:101420005CE67B07C9080B43F80839E65C189C4268
:101430009B4140445B42C7183B0200D425E61D4B4C
:1014400001261F4021E60400203AD4406246202AAB
:1014500004D040226646921B904003435A1E93419B
:101460001C437EE65C188C4289414044494247183F
:10147000DDE623003B4300D1ADE606E64407234307
:101480008024C0082403204208D04246D6082642C1
:1014900004D155463000CB0851070B435A0FDB00EF
:1014A000DB085207134319E60023014A1F005EE5DB
:1014B000FF070000FFFF7FFFF0B557464E46454649
:1014C000DE46E0B5814605000C03480092461F0049
:1014D00085B0240B400DCE0F002800D156E1D44B2F
:1014E000984200D172E16B0FE4001C4380231B047F
:1014F00023439846CF4BED009B46002399468344F7
:1015000000933C037B005046240B5B0DFF0F002B28
:1015100000D11FE1C64A934200D162E1C549420FA2
:101520008C46E40059461443802263441204CB1ACB
:1015300014439B46C200002033007B409A464B4632
:101540000F2B27D8BC499B00CB589F46B246009B27
:10155000022B16D0032B00D18EE2012B00D0D9E054
:1015600000230024002552461B052343D2071343C2
:101570002800190005B0F0BCBB46B246A946A046FB
:10158000F0BD00240025AA4BEDE7BA46A0461500A1
:101590000090DCE7444500D2C7E100D1C2E101235D
:1015A0005B429C462E0040460025E3442302140E75
:1015B0001C431B0C994623041F0C1202494600923F
:1015C0000197FEF72FFE02007A430B04310C804690
:1015D00019438A4207D901235B429C460919E0441A
:1015E0008C4200D807E2881A4946FEF71BFE090420
:1015F0008C4631046646019A090C4243030031438C
:101600008A4204D90919013B8C4200D8EDE1881ABD
:10161000424612041A4390464146009B0E041B0C9E
:101620001F000293009B360C1B04190C0B00734324
:10163000120C7E43039151437A431F0CBC4676182B
:101640006644B14203D9802149028C466244310C80
:101650008A1831041E04360C8E19904202D312D11E
:10166000B54210D24346591E009B9C4665441F005C
:101670009D429B415B421B19C018844200D2A0E1ED
:1016800000D19BE18846AE1BB542AD41801A6D4248
:10169000401B844200D1D5E14946FEF7C3FD019AC3
:1016A0000B044243310C050019438A4200D96CE116
:1016B000881A4946FEF7B6FD019A360442430904EA
:1016C000360C03000E43B24200D953E10398B61A18
:1016D00002002D041D43029F2B041B0C5A437B4325
:1016E0009C46290C4843130C844463447943984234
:1016F00003D98020400284466144180C12041B0464
:10170000120C41189B188E4200D2FFE000D1FAE083
:1017100001231D43494A5A44002A00DCAAE06B0712
:1017200000D03DE1ED084346DB0106D54246444B7F
:101730001A4090468022D2005A44424B9A4200DD21
:101740001FE743465B071D43434652055C02240BDB
:10175000530D08E75246224300D17BE0002C00D114
:10176000FAE0200001F0B4F902000B3A1D23010059
:101770009B1A52460839DA408C40144352468A403C
:10178000314B58449B4683440020D5E64B462343C7
:10179000984644D0002C00D1CEE0200001F098F90A
:1017A000010002000B391D235B1A49461000D94085
:1017B000083884400B004D46234398468540234813
:1017C000831A9B460023994600939AE64B4623438F
:1017D00098461DD108239946063B00258346009371
:1017E0008FE65246224309D1022349461943184B3A
:1017F00089469C4600240220E3449DE603234A4692
:101800001A43134B91469C4652460320E34493E609
:101810000C239946093BA0468346009371E60423B6
:10182000994600239B4601330025009369E6C04694
:10183000FF07000001FCFFFFB88E0008FF03000057
:10184000FFFFFFFEFE070000F30300000DFCFFFF9B
:1018500001F8FFFF4946012319438946002401206E
:101860006AE6002380249A4600258A4B24037AE600
:1018700001256D4201239B1A382B00DD70E61F2BDA
:1018800000DCBFE01F2149428A1A4146D1400A00CC
:10189000202B04D04146804B5B4499400D436B1E86
:1018A0009D4107232A431D0000241540134200D107
:1018B000D4E00F2100231140042900D1CBE0111DF9
:1018C0009142924152429B180A00190200D4C2E090
:1018D00001230024002546E6802341461B031942CC
:1018E00008D01C4206D11C432403BA461500694B9C
:1018F000240B38E68024434624031C432403B246C9
:10190000644B240B2FE6002B00D103E7A619681EB9
:10191000A64200D28DE08E4200D2A3E000D1B3E017
:101920000500F5E6AA4200D939E64346DE07580825
:101930006B081E43ED0739E6484601F0C9F801007F
:101940000200153120321C2900DC2CE74B460838F8
:1019500083400025984632E701F0BAF803001A00E8
:10196000153220301C2A00DC00E75446083B0022D8
:101970009C4005E73619013BB44200D9A6E6B242C5
:1019800000D8A3E6831E3619A0E60919013D8C4252
:1019900000D98DE68A4200D88AE6851E091987E6B5
:1019A0000F232B40042B00D1BCE605235B42AB4246
:1019B0009B4104355B42ED089844B4E6AF4200D940
:1019C00060E6824204D800D05CE6AE4200D859E618
:1019D00002235B429C46009BE0449C4665449D423A
:1019E0009B415B421B19C0184DE68A4200D80EE6A7
:1019F000831E09190BE68A4200D8F4E5831E984637
:101A00000919F0E52549280059448D4042468A408D
:101A1000691E8D414146D840D94002432A430B00FC
:101A2000510700D151E70F211140042900D046E7AA
:101A30004BE705008E4200D06AE6009A934200D040
:101A400066E667E6164A5A44002A00DC10E70123DE
:101A50000025984467E65D075B021C0BD208002353
:101A6000154380E50098023D42008242BF417F421B
:101A70003C1936190092DDE78024434624031C43B9
:101A80002403044B240B6EE5009A9A42EAD3050026
:101A9000D3E7C046FF0700003E0400001E0400001C
:101AA000FF030000F0B54E464546DE4657469046D9
:101AB000E0B517001A03120B0500844619480E03FF
:101AC0004C0091465A00DB0F9B46360B640DC90F44
:101AD000520D844219D0824210D0012094420ED17E
:101AE0004E450CD10120C44509D1594517D0002CD1
:101AF00005D130002843431E984100E00120F0BC8E
:101B0000BB46B246A946A046F0BD330001202B4398
:101B1000F5D1A242F3D14B463B43F0D1E2E700209E
:101B2000EDE7C046FF070000F0B54746CE4604008B
:101B3000180016001B031B0B2D4D4A00994680B55B
:101B400043000F03A446B0463F0B520DC90F5B0D77
:101B5000C00FAA4221D0AB4213D0002A22D13C436D
:101B6000002B02D14D462E4322D0002C10D08142B2
:101B700022D00220013908400138C0BCB946B04625
:101B8000F0BD4D462E4329D1002AF0D13C43EED181
:101B90000028F2D101204042EFE73D0025431DD14E
:101BA0009342EED0002BE2D14C462643DFD1E0E752
:101BB0000020002CE1D0DCE79A420ADCE8DB4F454C
:101BC000D7D80ED000204F45D7D20029E2D0080048
:101BD000D3E74342584140000138CEE7022040425B
:101BE000CBE7C445C5D80020C445C6D2EDE7C04602
:101BF000FF070000F0B54746CE4604001800160067
:101C00001B031B0B2C4D4A00994680B543000F0364
:101C1000A446B0463F0B520DC90F5B0DC00FAA4240
:101C20000DD0AB4210D0002A27D13C43002B11D15C
:101C30004D462E430ED10020002C15D00EE03D0065
:101C4000254310D1934218D14D462E430BD1002A83
:101C500002D13C43002C0BD0814214D00220013928
:101C60000840013800E00220C0BCB946B046F0BDD3
:101C70000028F9D101204042F6E7002BECD14C4678
:101C80002643E9D1EAE79A4204DD43425841400045
:101C90000138E9E79A42EBDB4F45DFD806D0002058
:101CA0004F45E1D20029E5D00800DDE7C445D5D88D
:101CB0000020C445D8D2F5E7FF070000F0B557462D
:101CC0004E464546DE46E0B598460C034B000600FE
:101CD000924687B0240B5B0DCF0F002B00D15CE147
:101CE000D94A934200D175E1420FE40014438022A7
:101CF00012041443D54AC50094466344009300235C
:101D000099469B46434642461E03D20F5B0050460F
:101D10009046360B5B0D00D120E1CB4A934200D1B7
:101D200062E1CA49420F8C4600996344F6008C4632
:101D3000164380229C44120463461643C2000020CE
:101D400000930099434601318C4649467B400193FC
:101D50000F2926D8BE4B890059588F464346019318
:101D60003400150083465B46022B16D0032B00D1AE
:101D700003E2012B00D0CDE0002200240025019BCE
:101D800012052243DB071A432800110007B0F0BCFC
:101D9000BB46B246A946A046F0BD00240025AA4A8B
:101DA000EDE7280C2D042D0C2B00110C1204120C45
:101DB0005343984613002F00434399464F434F44E3
:101DC000BB4647460B003F0CBA464343DA440293F6
:101DD000D14504D980277F02B9464B44029353462C
:101DE0001B0C9B4653461F0443461B041B0C984682
:101DF0003B0043440493330C3604360C98463300BE
:101E000043439946434643432F009A46434677430C
:101E10005D43380C4D444519A94503D980235B0225
:101E20009946CA443F04280C3F0C2D04ED19270C99
:101E30002404240C0300200050437A4391463A00C6
:101E400053440593030C9A464A4361434944514421
:101E5000AB44894503D980235B0299464A44000478
:101E60000B0C000C090409182000994643467043E6
:101E70005C437E435F43030C9846A41944444A44A0
:101E80000397A64204D980235B02984647440397F0
:101E90002304029E9A46059B5E449846AE42AD419D
:101EA00076188E4289410004000C504440446D4233
:101EB0004719B846934649428946C344D944984293
:101EC0008041A845AD4193459241894589416D4284
:101ED00040422843240C524249420A43039B0019C2
:101EE0008018C7184B46DC0D049B75021D436A1E03
:101EF00095414B46F60D7F0235435A023C4315434C
:101F0000FB0100D41CE101216A080D401543E207E2
:101F1000154364084F496144002900DCB0E06B07B9
:101F200009D00F222A40042A05D02A1DAA42AD4119
:101F30006D4264191500E30104D58021464AC900A9
:101F400014406144454A914200DD26E76207ED08EE
:101F5000640249051543240B4A0D10E752463243EB
:101F600000D17FE0002E00D1DCE0300000F0B0FDB9
:101F700002000B3A1D2301009B1A52460839DA4031
:101F80008E40164352468A40009B3549181A03007A
:101F90008C46634400200093D3E6250005434AD0D5
:101FA000002C00D1B0E0200000F092FD0100020002
:101FB0000B391D2310005B1A3100350008388440AE
:101FC000D94085400C432648831A00930023994644
:101FD0009B4697E60500254326D10822009302235D
:101FE000002491469B468DE65246009B324310D119
:101FF000154900268C466344494600930223194341
:10200000894602209DE65B460197022B00D0ADE693
:10201000C3E60D4A0320944663444A4600930323D3
:102020001A43914652468CE60C2200930323050086
:1020300091469B4666E604239946002300930133AC
:1020400000249B465EE6C046FF07000001FCFFFF40
:10205000F88E0008FF030000FFFFFFFEFE070000F0
:102060000DFCFFFF49460123194389460026012044
:1020700067E6002380240025434A019324037EE67B
:102080000120401A382800DD76E61F285BDD1F227C
:1020900023005242511ACB401900202803D03B4A5A
:1020A0006244944025436A1E95412A000A43072151
:1020B0000D000024154011425BD00F210024114077
:1020C000042953D0111D914292415242A4180A0092
:1020D00023024BD501220024002550E680231B0358
:1020E0001C4209D01E4207D133431C03434615004E
:1020F000240B254A019342E6802212031443240351
:10210000214A240B01973AE600F0E2FC01000200AC
:10211000153120321C2900DC4BE73400083800253B
:10212000844050E700F0D4FC03001A001532203040
:102130001C2A00DC1EE75646083B00229E4023E78F
:10214000009B9C46E6E61249220061442E008D4029
:102150008A40C640691E8D4132432A43C44053071A
:10216000B6D00F2111400429ACD1B1E76507640254
:10217000240BD2081543002201E6802212031443E7
:102180002403014A240BFAE5FF0700003E04000087
:102190001E040000F8B557464E464546DE46E0B5FB
:1021A0001E0017004A000B03520D5B0A9046420FB7
:1021B0001A43CD0FCD4C3103C300944670007A0F03
:1021C000490AFF009A46B946400DF60F1143A04256
:1021D00000D1B1E001225640B346B54200D188E0BB
:1021E0004246121A002A00DCAEE0002800D1C1E00D
:1021F000BE48804500D151E1802000040143382AC7
:1022000000DD7BE11F2A00DDEEE120203E00801A88
:102210000C00D640D140874062468440521A781E56
:102220008741944634432743DC1BA3429B416246CB
:102230005B42D31A99464B461B0200D418E14B4629
:102240005802430A99464B46002B00D137E14846D5
:1022500000F03EFC010008392023220048465B1AAA
:10226000DA4088408C4043461043884500DD36E123
:10227000C91A4B1C1F2B00DDEAE020222600D21ACF
:1022800001009440DE40D84000239140621E9441FA
:102290008146984631430C43630709D00F232340FE
:1022A000042B05D0231DA342A4416442A1441C0079
:1022B0004B461B0200D4DEE041468C4B0131994273
:1022C00000D1E7E04B468A48E4080340180049057E
:1022D0005B07400223434A0D040B1205ED0722431E
:1022E0002A4318001100F0BCBB46B246A946A046DE
:1022F000F8BD4246121A002A52DD002800D19CE0A7
:10230000A04500D1CAE0802000040143382A00DD46
:1023100049E11F2A00DC97E110000E002038C6407A
:10232000202A04D04020821A91400F43B9464C46DF
:10233000621E944134433AE10A003A4328D0B3463E
:10234000B5422BD06B4A4244002A5DD042464446F7
:10235000821A002C00D0F5E065461D4300D19CE1B7
:10236000551E012A00D1FBE1604CA24200D1BDE123
:102370002A00F0E00800384300D1C3E0501E012AD3
:1023800000D1A8E1594CA24200D187E0020036E713
:1023900001225640B346B54200D021E7554A424497
:1023A000002A00D1B5E042464446821A002C00D1F2
:1023B00038E14E4EB04200D1DEE18026644636045C
:1023C0003443A446382A00DD96E11F2A00DD24E2CA
:1023D0002026B41AA24664465646B440A1461C00C4
:1023E0004E46D440264334005646B3405E1EB341A9
:1023F0001C436346D340C918E419BC42BF417F4225
:10240000B94680468944D8E040463B4C01302042E2
:1024100000D0B4E04046002800D044E160461843B4
:1024200000D190E10800384300D0AAE16146DB0802
:1024300049070B436146CC0827E00800384361D0C8
:10244000501E012A00D139E1A24227D002005DE7E7
:1024500002001F39CA401100202B03D04022D31A9A
:1024600098400443631E9C410023994698460C43C0
:10247000630700D012E74B464A46E4085B07234354
:10248000D408424619498A420ED024035205240B2F
:10249000520D22E70A00002400231EE7DB086246F3
:1024A000520713436246D4081A00224300D1FCE1CC
:1024B00080221203144324030C4A240B0DE720004E
:1024C00000F006FB010018311F2900DCC4E60838C3
:1024D0008440434620000024884500DCC8E6044AC6
:1024E0005B1A104098468146D6E6C046FF070000BA
:1024F000FFFF7FFF01F8FFFFFE0700000F437A1E7A
:10250000974191E66146DB0849070B436146CC08D9
:10251000B8E74046D34C0130204200D0A2E040460C
:10252000002800D001E16046184300D15EE10800B8
:10253000384300D05FE16146DB0849070B43614641
:10254000CC08A2E7C84DA84200D1CFE08025644660
:102550002D042C43A446382A56DC1F2A00DDD1E086
:1025600020251E00AD1A6446AB40AC40D6405D1E2F
:10257000AB41344323436446D440091B49E06046E1
:10258000DC1B461AA34280414042814630004E4641
:10259000801B8146000276D44B46234300D052E68E
:1025A0000024002571E739430C00621E9441E418B1
:1025B0009C429B415B42634499464B461B0200D4BC
:1025C00056E701239C46A84BE044984538D04B463B
:1025D000A648012203401800630814401C43C307A7
:1025E0001C434308994657E610000E002038C640A9
:1025F000202A04D04020821A91400F43B9464F460A
:102600007A1E974137430FE662461A4313005A1E5B
:102610009341FC1AA742BF417F42CB1B99465D46BE
:10262000804608E666461E4300D1BEE0561E012ADB
:1026300000D109E18C4CA24200D119E13200C1E67F
:1026400042460024002348E620200C00801A3E0069
:1026500087408440D640781E8741D14034433C4374
:102660008C44A4E7804A904200D1E9E0DF199F4200
:102670009B4161445B42C918CC077F084B089946CF
:1026800080463C43F4E6FC1AA742BF4163467F42C2
:10269000C91ACB1B99465D46D5E5FF084B075D4639
:1026A0003B43CC08EEE662461A4300D082E00B00C2
:1026B0003B431BD1802400252403F9E6DC199C420E
:1026C0009B41614489465B4299444B461B0244D47A
:1026D00001239846CCE6DC1B6246A3429B41511A7B
:1026E0005B42CB1A994601239846A4E5FF084B07A5
:1026F0005D463B43CC08D7E662461A431400631E8E
:102700009C4179E615006446203DEC40A046202A15
:1027100005D040256446AA1A944023439A4654465D
:10272000631E9C414346234373E762461A4323D00A
:102730000A003A4300D0A0E06246DB085207134388
:102740006246D408B0E60B003B4300D128E7FF08FF
:102750004B075D463B43CC0897E60223984636E795
:10276000FC1AA742BF4163467F42C91ACB1B994658
:1027700001235D4698465EE54B07FF083B43CC08C6
:1027800092E6DC1B6046A342B641401A7642801BAB
:102790008146000260D5FC1AA742BF4163467F42D2
:1027A000C91ACB1B99465D4676E5FF084B073B43AC
:1027B000CC0867E60A00DB083A4300D16FE66246C0
:1027C000520713436246D40880221203144207D0F2
:1027D000C808104204D15D460400FB0849070B43BA
:1027E0005A0FDB00DB08520713435DE64B07FF0877
:1027F0003B43CC0849E6DC199C429B416144894635
:102800005B4299444B461B0200D431E64A46174BC3
:102810001A400123914698462AE616006446203E57
:10282000F440A046202A05D040266446B21A9440BF
:1028300023439A465446631E9C4143461C43DBE5B2
:1028400002000024002348E5DC19BC42BF4161447A
:1028500089467F42B94438E74B46234300D19FE67F
:1028600006E6C046FE070000FF070000FFFF7FFFEF
:10287000FF084B073B43CC0816E66246DB085207CD
:1028800013436246D40880221203144207D0C808BA
:10289000104204D15D460400FB0849070B435A0F60
:1028A000DB005207DB081343FEE50023014A1C004E
:1028B00013E5C046FF07000070B505000C481C0377
:1028C00016005B000A034900120B490D240B5B0D37
:1028D000814208D0064A0020934203D120003043B1
:1028E000431E984170BD01202A43FBD1F2E7C04648
:1028F000FF0700000A0030B5134C53000903050020
:10290000090B00205B0DD20FA34204DD0F48834268
:1029100002DD0F4BD01830BD8020400301430D482D
:10292000C01A1F2808DD0C48C31AD9400B005842B2
:10293000002AF0D11800EEE7084CC540A4466344D5
:1029400099400B002B43F2E7FE0300001D0400003A
:10295000FFFFFF7F3304000013040000EDFBFFFFC7
:1029600070B5002816D0C317C5185D40C40F2800E5
:1029700000F0AEF8114A121A0A2816DC03002E00E5
:1029800015339E400B23181AC54052052D032D0BFD
:10299000530D03E000240023002500261B052B43D4
:1029A000E40723433000190070BD0B388540520501
:1029B0002D0300262D0B530DF0E7C0461E0400002A
:1029C00002004B00F0B55B0D0C033D4E640A400F56
:1029D0005F1CC90F0443D50037420AD039481E187E
:1029E000FE2E16DDFF200024C0052043C907084342
:1029F000F0BD002B06D12C4326D005229201540AAB
:102A0000D8B2F1E72543EDD08020C0030443FF2076
:102A1000EAE7002E1BDD9201531E9A41E4006D0F80
:102A200022432A43530748D00F231340042B00D0DE
:102A300004328023DB0413403FD0701CFE2ED1D023
:102A40009201540AC0B2CFE700200024CCE7320044
:102A5000173222DB8020000420431E24A41B1F2CDD
:102A60001DDD02225242961B0200F2401600202C6D
:102A700004D0154A94466344984005432A00531EE7
:102A80009A41324300265307CED180241300E40438
:102A9000012023402242D3D1B0E70023ADE70B4A07
:102AA00094462A00E24014002A0063449A40984069
:102AB000551EAA4102432243E4E733009EE7C04685
:102AC000FE07000080FCFFFFA2FCFFFF82FCFFFF6F
:102AD0001C2101231B04984201D3000C10391B0A4E
:102AE000984201D3000A08391B09984201D3000912
:102AF000043902A2105C40187047C0460403020269
:102B000001010101000000000000000080B500AFDD
:102B10001B4B1A681A4B01210A431A60184B5A685A
:102B2000174B18490A405A60154B1A68144B16493E
:102B30000A401A60124B1A68114B14490A401A6075
:102B40000F4B5A680E4B12490A405A600C4BDA6A16
:102B50000B4B0F218A43DA62094B1A6B084B0D4964
:102B60000A401A63064B5A6B054B01218A435A638C
:102B7000034B00229A6000F085F8C046BD4680BD38
:102B8000001002400CB8FF08FFFFF6FEFFFFFBFF3E
:102B9000FFFFC0FFACFEFFFF80B584B000AF002395
:102BA000FB600023BB6000237B6000233B60314B54
:102BB0005B680C221340FB60FB68082B11D0FB689C
:102BC000082B3FD8FB68002B03D0FB68042B04D0F4
:102BD00038E0294B294A1A6038E0274B274A1A6007
:102BE00034E0244B5A68F0239B031340BB60214B15
:102BF0005A68C0235B0213407B60BB689B0C0233A6
:102C0000BB607B68002B0CD1B9680A005201521AD4
:102C100093019B1ADB005B181B021A00164B1A600B
:102C200014E0144BDB6A0F22134001333B60396818
:102C30001248FDF771FA03001A00BB685A430E4BA5
:102C40001A6003E00C4B0D4A1A60C046094B5B68E2
:102C50001B090F2213400A4AD35CDBB2FB60064B10
:102C60001A68FB68DA40044B1A60C046BD4604B0DF
:102C700080BDC046001002400000002000127A0013
:102C80000400002080B582B000AF00237B600023E9
:102C90003B60314B1A68304B802149020A431A606D
:102CA0002D4B1A6880239B0213403B607B680133E5
:102CB0007B603B68002B04D17A68A023DB019A4239
:102CC000EED1254B1A6880239B02134002D00123CA
:102CD0003B6001E000233B603B68012B38D11F4B78
:102CE00011221A601C4A1C4B52685A601A4A1A4B2D
:102CF00052685A60184B5A68174B19490A405A6073
:102D0000154B5A68144B882149030A435A60124BE9
:102D10001A68114B802149040A431A60C0460E4BC1
:102D20001A6880239B041340F9D00B4B5A680A4B56
:102D300003218A435A60084B5A68074B02210A4311
:102D40005A60C046044B5B680C221340082BF9D133
:102D5000C046BD4602B080BD0010024000200240C7
:102D6000FF7FC0FF80B582B000AF78607B68094A02
:102D700093420BD180239B000121180000F022FE1A
:102D800080239B000021180000F01CFEC046BD46B9
:102D900002B080BD0024014080B584B000AF7860EF
:102DA00039600023FB607B68DB68FB60FB680F4ACF
:102DB0001340FB603B681A683B681B795B031A434E
:102DC0003B689B681A433B68DB681A433B681B6996
:102DD0001A433B685B691343FA681343FB607B68E3
:102DE000FA68DA60C046BD4604B080BD03D2FFFF7A
:102DF00080B582B000AF78607B6800221A607B6883
:102E000000221A717B6800229A607B680022DA60D7
:102E10007B6800221A617B6800225A61C046BD4669
:102E200002B080BD80B582B000AF78600A00FB1CA4
:102E30001A70FB1C1B78002B06D07B689B68012254
:102E40001A437B689A6005E07B689B6802221A43FC
:102E50007B689A60C046BD4602B080BD80B586B032
:102E600000AFF860B9607A6000237B61FB689A6A02
:102E7000BB681A43FB689A627B69072293437B61B4
:102E80007A697B6813437B61FB687A695A61C04643
:102E9000BD4606B080BD80B586B000AF7860002327
:102EA0007B6100233B610023FB607B689B68802281
:102EB00012061A437B689A607B689B68DB0FDB070E
:102EC000FB603B6901333B613A69F0231B029A4284
:102ED00002D0FB68002BEFD17B689B68002B03DBE3
:102EE0007B681B6C7B6101E000237B617B691800C0
:102EF000BD4606B080BD80B582B000AF78607B680B
:102F00009B6804221A437B689A60C046BD4602B0A3
:102F100080BD80B582B000AF78600A00FB1C1A70DB
:102F2000FB1C1B78002B06D07B68DB6801221A4350
:102F30007B68DA6006E07B68DB68012293431A0055
:102F40007B68DA60C046BD4602B080BD80B582B005
:102F500000AF786039607B68DB68022293431A0017
:102F60007B68DA607B68DA683B681A437B68DA6002
:102F7000C046BD4602B080BD80B584B000AF786069
:102F800039600F23FB1800221A700023BB603A68D7
:102F900080235B04134005D07B689B680D4A134077
:102FA000BB6002E07B681B68BB60BB683A6813408B
:102FB00004D00F23FB1801221A7003E00F23FB1823
:102FC00000221A700F23FB181B781800BD4604B0AE
:102FD00080BDC046FFFFFFFE80B582B000AF7860C5
:102FE0007B681B684F4A1A407B681A607B68002226
:102FF0001A607B6800225A607B6800229A607B68B6
:103000000022DA607B68484A934206D1474B5A68EF
:10301000464B0F210A435A607FE07B68444A934243
:1030200006D1424B5A68414BF0210A435A6074E082
:103030007B68404A934207D13C4B5A683B4BF02196
:1030400009010A435A6068E07B683B4A934207D112
:10305000364B5A68354BF02109020A435A605CE04E
:103060007B68364A934207D1304B5A682F4BF02188
:1030700009030A435A6050E07B68314A934207D102
:103080002A4B5A68294BF02109040A435A6044E04C
:103090007B682C4A934207D1244B5A68234BF0217A
:1030A00009050A435A6038E07B68274A934206D1F3
:1030B000264B5A68254B0F210A435A602DE07B6846
:1030C000234A934206D1214B5A68204BF0210A43F0
:1030D0005A6022E07B681F4A934207D11B4B5A6813
:1030E0001A4BF02109010A435A6016E07B681A4A1C
:1030F000934207D1154B5A68144BF02109020A4339
:103100005A600AE07B68154A934206D10F4B5A6811
:103110000E4BF02109030A435A60C046BD4602B077
:1031200080BDC046FEFF00000800024000000240D3
:103130001C0002403000024044000240580002409F
:103140006C0002408000024008040240000402407B
:103150001C0402403004024044040240580402406F
:1031600080B584B000AF786039600023FB607B6875
:103170001B68FB60FB68184A1340FB603B689A6859
:103180003B681B6A1A433B681B691A433B685B69CF
:103190001A433B689B691A433B68DB691A433B68E7
:1031A0005B6A1A433B689B6A1343FA681343FB60EC
:1031B0007B68FA681A603B68DA687B685A603B682B
:1031C0001A687B689A603B685A687B68DA60C04618
:1031D000BD4604B080BDC0460F80FFFF80B582B001
:1031E00000AF78600A00FB1C1A70FB1C1B78002BD8
:1031F00006D07B681B6801221A437B681A6005E0D1
:103200007B681B68034A1A407B681A60C046BD464B
:1032100002B080BDFEFF000080B584B000AF7860D2
:103220000023FB60334BFB607B689B79002B4FD006
:10323000304B1A687B681B68D9432E4B0A401A60D2
:103240002C4B5A687B681B68D9432A4B0A405A604A
:103250007B681B791A00FB689B18FB60FB68196888
:103260007B681A68FB680A431A60224B9A687B687D
:103270001B68D9431F4B0A409A601E4BDA687B6873
:103280001B68D9431B4B0A40DA607B685B79102BC3
:103290000ED1184B99687B681A68164B0A439A60DE
:1032A000144BD9687B681A68124B0A43DA601DE038
:1032B000104BFB607B685B791A00FB689B18FB6016
:1032C000FB6819687B681A68FB680A431A600DE09E
:1032D0007B681B791A00FB689B18FB60FB681A6807
:1032E0007B681B68D943FB680A401A60C046BD462C
:1032F00004B080BD0004014080B584B000AF7860A8
:103300000F217B1800221A70094B5B697A68134001
:1033100003D07B1801221A7003E00F23FB18002250
:103320001A700F23FB181B781800BD4604B080BD2F
:103330000004014080B582B000AF7860034B7A682A
:103340005A61C046BD4602B080BDC046000401407F
:1033500080B586B000AF7860396000237B610023C0
:103360003B610023FB6000237B617CE001227B69E1
:103370009A4013003B613B681A683B691340FB604D
:10338000FA683B699A426BD13B681B79012B03D0E9
:103390003B681B79022B34D17B689B687A695200A9
:1033A000032191400A00D2431A407B689A607B68EF
:1033B0009A683B685B7919007B695B0099400B0058
:1033C0001A437B689A607B689B889BB27A6992B249
:1033D000110001228A4092B2D24392B213409AB2B3
:1033E0007B689A807B689B889AB23B689B791900BE
:1033F0007B699BB299400B009BB213439AB27B68E6
:103400009A807B681B687A695200032191400A0008
:10341000D2431A407B681A607B681A683B681B7944
:1034200019007B695B0099400B001A437B681A60A6
:103430007B68DB687A6992B25200032191400A00EE
:10344000D2431A407B68DA607B68DA683B68DB79D4
:1034500019007B695B0099400B001A437B68DA60B6
:103460007B6901337B617B690F2B00D87EE7C04607
:10347000C046BD4606B080BD80B584B000AF786060
:103480000A00BB1C1A800F217B1800221A707B686F
:103490001B8A9BB2BA1C128813409BB2002B03D02C
:1034A0007B1801221A7003E00F23FB1800221A7008
:1034B0000F23FB181B781800BD4604B080BD80B5F3
:1034C00082B000AF78600A00BB1C1A80BB1C1A884F
:1034D0007B689A61C046BD4602B080BD80B582B0AF
:1034E00000AF78600A00BB1C1A807B68BA1C128887
:1034F0001A85C046BD4602B080BD80B584B000AF1D
:10350000786008001100BB1C021C1A807B1C0A1C7E
:103510001A700023FB600023BB607B1C1A78BB1C65
:103520001B8807210B409B009A401300FB60BB1CCB
:103530001B88DB089BB21A007B6808329200D358C4
:10354000BA1C128807210A4092000F2191400A00FC
:10355000D243B91C0988C90889B208001A40110071
:103560007B68020008329200D150BB1C1B88DB082C
:103570009BB21A007B6808329200D358FA68134352
:10358000BB60BB1C1B88DB089BB21A007B6808323F
:103590009200B968D150C046BD4604B080BD00005D
:1035A00080B584B000AF78600023FB607B689B78B7
:1035B000002B39D0244A7B681B789B08DBB2C033D0
:1035C0009B009B58FB607B681B781A000323134009
:1035D000DB00FF229A401300DA43FB681340FB60D4
:1035E0007B685B789B01FF221A407B681B7819007F
:1035F00003230B40DB009A401300FA681343FB607F
:1036000011497B681B789B08DBB2C0339B00FA68CA
:103610005A507B681B781A001F231A400A4B01215D
:1036200091400A001A600AE07B681B781A001F2389
:103630001340054901229A40130080228B50C04656
:10364000BD4604B080BDC04600E100E080B588B052
:1036500000AF78600023BB6100237B6100233B61E6
:103660000023FB600023BB600023FB61AF4B5B6862
:103670000C221340BB61BB690C2B48D0BB690C2BDF
:1036800049D8BB69082B11D0BB69082B43D8BB694B
:10369000002B03D0BB69042B04D03CE07B68A44A18
:1036A0001A603CE07B68A24A1A6038E09F4B5A6877
:1036B000F0239B0313407B619C4B5A68C0235B0241
:1036C00013403B617B699B0C02337B613B69002BA0
:1036D0000AD179690A005201521A93019B1ADB0040
:1036E0005B181B02FB610EE0904BDB6A0F2213405C
:1036F0000133FB60F9688E48FCF70EFD03001A00E9
:103700007B695343FB617B68FA691A6007E07B6859
:10371000884A1A6003E07B68854A1A60C046834B7A
:103720005B68F0221340BB61BB691B09BB61824A25
:10373000BB69D3181B78DBB2BB607B681A68BB68B7
:10374000DA407B685A60794B5A68E023DB0013400B
:10375000BB61BB691B0ABB61774ABB69D3181B7885
:10376000DBB2BB607B685A68BB68DA407B689A60F2
:103770006E4B1A6B80235B001A4080235B009A42D9
:1037800003D07B686D4ADA6013E0684B5A68802387
:10379000DB011A408023DB019A4205D07B689B68DD
:1037A0005A087B68DA6004E07B689B689A087B684B
:1037B000DA605E4B1B6B40221340402B03D07B68CA
:1037C0005F4A1A6103E07B68802212021A61574B3C
:1037D0001B6B10221340102B03D07B68544A5A6194
:1037E00003E07B681A687B685A61504B1B6B0322AD
:1037F000134004D17B689A687B689A611EE04B4B4A
:103800001B6B03221340012B04D17B681A687B6871
:103810009A6113E0454B1B6B03221340022B04D12A
:103820007B68802212029A6108E0404B1B6B0322E6
:103830001340032B02D17B683D4A9A613B4B1A6BC4
:10384000C0239B02134004D17B689A687B68DA61CD
:1038500027E0364B1A6BC0239B021A4080235B0281
:103860009A4204D17B681A687B68DA6119E02F4BB1
:103870001A6BC0239B021A4080239B029A4204D1F8
:103880007B6880221202DA610BE0284B1A6BC0239E
:103890009B021A40C0239B029A4202D17B68244AB1
:1038A000DA61224B1A6BC0231B03134004D17B68DF
:1038B0009A687B681A6227E01C4B1A6BC0231B03B3
:1038C0001A408023DB029A4204D17B681A687B6825
:1038D0001A6219E0154B1A6BC0231B031A40802390
:1038E0001B039A4204D17B68802212021A620BE009
:1038F0000E4B1A6BC0231B031A40C0231B039A42B2
:1039000002D17B680A4A1A62084B1B6B8022134063
:10391000802B03D07B68074A5A6202E07B68FA6911
:103920005A62C046BD4608B080BDC0460010024085
:1039300000127A00006CDC0214000020809FD50089
:103940001280000080B582B000AF78600A00FB1CD6
:103950001A70FB1C1B78002B06D0094B5969084BC9
:103960007A680A435A6106E0054B5A697B68D94375
:10397000034B0A405A61C046BD4602B080BDC046F6
:103980000010024080B582B000AF78600A00FB1CD6
:103990001A70FB1C1B78002B06D0094B9969084B49
:1039A0007A680A439A6106E0054B9A697B68D943B5
:1039B000034B0A409A61C046BD4602B080BDC04676
:1039C0000010024080B582B000AF78600A00FB1C96
:1039D0001A70FB1C1B78002B06D0094BD968084BCA
:1039E0007A680A43DA6006E0054BDA687B68D943F7
:1039F000034B0A40DA60C046BD4602B080BDC046F7
:103A00000010024080B582B000AF78600A00FB1C55
:103A10001A70FB1C1B78002B06D0094B1969084B48
:103A20007A680A431A6106E0054B1A697B68D94334
:103A3000034B0A401A61C046BD4602B080BDC04675
:103A40000010024080B582B000AF78607B68124AF7
:103A500093420CD180235B0101211800FFF7B2FFD4
:103A600080235B0100211800FFF7ACFF0FE07B68AB
:103A70000A4A93420BD18023DB0101211800FFF792
:103A8000C1FF8023DB0100211800FFF7BBFFC04608
:103A9000BD4602B080BDC046003001400038004045
:103AA00080B584B000AF786039600E203B180022EA
:103AB0001A803B187A6812881A803B183A181188C5
:103AC000C12292010A401A803B681A883B68DB8950
:103AD00013439AB23B68DB8813439AB23B681B8955
:103AE00013439AB23B685B8913439AB23B689B8944
:103AF000134399B23B183A1812880A431A807B681C
:103B00003A1812881A803B187A6892881A803B18F3
:103B10003A18128819490A401A803B6899883B185C
:103B20003A1812880A431A807B683A1812889A80D9
:103B30003B681A8A7B681A823B187A6812881A8056
:103B40003B183A18128804218A431A803B68598826
:103B50003B183A1812880A431A807B683A18128870
:103B60001A807B689B8B9BB2054A13409AB27B6894
:103B70009A83C046BD4604B080BDC046FFF0FFFF3B
:103B8000FFF7FFFF80B582B000AF78600A00FB1C32
:103B90001A70FB1C1B78002B08D07B681B889BB21B
:103BA000402213439AB27B681A8007E07B681B8827
:103BB0009BB2402293439AB27B681A80C046BD46AE
:103BC00002B080BD80B584B000AF78600A00FB1CF5
:103BD0001A700023FB607B68FB60FB680C33FB60A2
:103BE000FB68FA1C12781A70C046BD4604B080BD4E
:103BF00080B584B000AF0200FB1D1A70BB1D0A1C0B
:103C00001A700023FB60BB1D1B78032213409B002E
:103C10000F229A401300FB60184ABB1D1B789B08BB
:103C2000DBB202339B009B58FA68D2431348B91D9C
:103C300009788908C9B21A408B1C9B001A500F4A98
:103C4000BB1D1B789B08DBB202339B009A58FB1DFF
:103C50001978BB1D1B78032003409B0099400B0083
:103C60000648B91D09788908C9B21A438B1C9B0004
:103C70001A50C046BD4604B080BDC0460000014099
:103C800080B584B000AF786039600E217B180022C7
:103C90001A807B187A6812881A807B682A4A9342B5
:103CA00008D07A688023DB059A4203D07B68274AD4
:103CB00093420DD10E203B183A18128870218A4386
:103CC0001A803B6859883B183A1812880A431A80B0
:103CD0007B681F4A93420DD00E203B183A18128879
:103CE0001C490A401A803B6819893B183A18128807
:103CF0000A431A807B680E22BA1812881A803B6821
:103D00005A687B68DA623B681A887B681A857B6828
:103D10000D4A93420BD07B680F4A934207D07B68D1
:103D20000E4A934203D07B680D4A934204D13B680C
:103D30009B7A9AB27B681A867B6801229A82C04677
:103D4000BD4604B080BDC046002C014000040040C8
:103D500000100040FFFCFFFF004001400044014014
:103D60000048014080B582B000AF786039607B6860
:103D70003A685A62C046BD4602B080BD80B582B086
:103D800000AF78600A00FB1C1A70FB1C1B78002B2C
:103D900008D07B681B889BB2012213439AB27B68D0
:103DA0001A8007E07B681B889BB2012293439AB27A
:103DB0007B681A80C046BD4602B080BD80B582B027
:103DC00000AF78600A00FB1C1A70FB1C1B78002BEC
:103DD0000AD07B6844229B5A9BB20A4A134399B289
:103DE0007B684422995209E07B6844229B5A9BB22B
:103DF0005B045B0C99B27B6844229952C046BD4675
:103E000002B080BD0080FFFF90B585B000AF786044
:103E100039600A217B1800221A800E243B190022E7
:103E20001A800C203B1800221A807B681B8C9BB2E6
:103E3000012293439AB27B681A843B197A68128CE8
:103E40001A803B187A6892881A807B187A68128BDD
:103E50001A807B1808007A18128870218A431A8009
:103E60003B183A18128803218A431A803B68198844
:103E70003B183A1812880A431A8020003B183A1857
:103E8000128802218A431A803B6899893B183A18A4
:103E900012880A431A803B6859883B183A181288DE
:103EA0000A431A807B682E4A93420BD07B682D4AC6
:103EB000934207D07B682C4A934203D07B682B4AFD
:103EC000934235D10E203B183A18128808218A43B4
:103ED0001A803B68D9893B183A1812880A431A801D
:103EE0003B183A18128804218A431A803B68998843
:103EF0003B183A1812880A431A800C203B183A18CB
:103F000012881B490A401A803B183A18128819492E
:103F10000A401A803B68198A3B183A1812880A43EB
:103F20001A803B68598A3B183A1812880A431A804B
:103F30007B680C22BA1812889A807B680A22BA1809
:103F400012881A833B689A687B685A637B680E22E2
:103F5000BA1812881A84C046BD4605B090BDC04646
:103F6000002C014000400140004401400048014055
:103F7000FFFEFFFFFFFDFFFF90B585B000AF78604B
:103F800039600A217B1800221A800E243B19002276
:103F90001A800C203B1800221A807B681B8C9BB275
:103FA000102293439AB27B681A843B197A68128C68
:103FB0001A803B187A6892881A807B187A68128B6C
:103FC0001A807B1808007A18128846490A401A801D
:103FD0003B183A18128844490A401A803B681B88EB
:103FE0001B0299B23B183A1812880A431A80200023
:103FF0003B183A18128820218A431A803B689B8913
:104000001B0199B23B183A1812880A431A803B6880
:104010005B881B0199B23B183A1812880A431A8030
:104020007B68324A934203D07B68314A934241D144
:104030000C203B183A1812882E490A401A803B6817
:104040001B8A9B0099B23B183A1812880A431A80BF
:104050007B68264A93422DD10E243B193A191288C7
:1040600080218A431A803B68DB891B0199B23B1986
:104070003A1912880A431A803B193A1912884021CA
:104080008A431A803B689B881B0199B23B193A19F5
:1040900012880A431A803B183A18128816490A40B7
:1040A0001A803B685B8A9B0099B23B183A181288C9
:1040B0000A431A807B680C22BA1812889A807B689F
:1040C0000A22BA1812881A833B689A687B689A6336
:1040D0007B680E22BA1812881A84C046BD4605B005
:1040E00090BDC046FF8FFFFFFFFCFFFF002C01408B
:1040F00000400140FFFBFFFFFFF7FFFFB0B584B0BA
:1041000000AF786039600C217B1800221A800A24E5
:104110003B1900221A800E257B1900221A807B6829
:104120001B8C9BB2344A13409AB27B681A843B19A9
:104130007A68128C1A807B197A6892881A807B18A8
:104140007A68928B1A807B1808007A1812882B499B
:104150000A401A803B183A18128829490A401A80E6
:104160003B681B881B0299B23B183A1812880A4315
:104170001A8020003B183A18128822490A401A80F7
:104180003B689B891B0399B23B183A1812880A4373
:104190001A803B685B881B0399B23B183A18128857
:1041A0000A431A807B68184A93420ED17B197A1908
:1041B000128816490A401A803B681B8A9B0199B2F3
:1041C0007B197A1912880A431A807B680E22BA1862
:1041D00012889A807B680C22BA1812889A833B68EE
:1041E0009A687B681A647B680A22BA1812881A8453
:1041F000C046BD4604B0B0BDFFEFFFFFFF8FFFFF1D
:10420000FFFCFFFFFFDFFFFF002C0140FFBFFFFFB0
:1042100080B582B000AF786039607B683A685A63D5
:10422000C046BD4602B080BD80B582B000AF7860A8
:1042300039607B683A689A63C046BD4602B080BD6B
:1042400090B591B000AF786039600023FB63002324
:10425000BB6300237B637B681B68012293431A00C6
:104260007B681A607B685B687B637B6B4F4A13409B
:104270007B633B689B687A6B13437B637B687A6BD9
:104280005A607B681B687B637B6B494A13407B6386
:104290003B685A683B68DB681A433B681B691343F9
:1042A0007A6B13437B637B687A6B1A607B689B68CD
:1042B0007B637B6B3F4A13407B633B685B697A6B34
:1042C00013437B637B687A6B9A600C243B1918005C
:1042D000FFF7BCF97B68384A934203D13B199B69CD
:1042E000BB6315E07B68354A934204D10C23FB186D
:1042F000DB69BB630CE07B68314A934204D10C2339
:10430000FB181B6ABB6303E00C23FB189B68BB63B1
:104310007B681A6880231B02134014D0BB6B5A00C1
:104320003B681B6819001000FBF7F6FE0300FB63F7
:10433000BB6B5A003B681B6819001000FBF772FF4B
:104340000B007B6310E03B681B681900B86BFBF740
:10435000E3FE0300FB633B681A68BB6B11001800A7
:10436000FBF760FF0B007B633B681B685B087A6BA5
:104370009A4202D3FB6B0133FB637B681A6880238C
:104380001B0213400AD0FB6B5B08072213407B63C0
:10439000FB6B0C4A13407A6B1343FB63FB6B9AB2C3
:1043A0007B689A81C046BD4611B090BDFFCFFFFF2C
:1043B000F3E9FFFFFFFCFFFF00380140004400402D
:1043C00000480040F0FF000080B582B000AF786088
:1043D0000A00FB1C1A70FB1C1B78002B06D07B68A4
:1043E0001B6801221A437B681A6006E07B681B6821
:1043F000012293431A007B681A60C046BD4602B092
:1044000080BD80B582B000AF78607B689B8C9BB22A
:10441000DB05DB0D9BB21800BD4602B080BD80B548
:1044200088B000AFF860B960FB1D1A700023BB6153
:1044300000237B6100233B610023FB61FB68FB6180
:10444000BB689BB21B0A9BB2BB61BB68FF221340D7
:104450007B6101227B699A4013003B61BB69022B9F
:1044600003D1FB690433FB6105E0BB69032B02D177
:10447000FB690833FB61FB1D1B78002B06D0FB6931
:104480001968FB693A690A431A6006E0FB691A6811
:104490003B69D943FB690A401A60C046BD4608B073
:1044A00080BD80B586B000AF786039600023FB60C6
:1044B00000237B610023BB601323FB1800221A70CA
:1044C0003B689BB21B0A9BB2BB603B68FF22134058
:1044D0007B6101227B699A4013007B61BB68012BE1
:1044E00005D17B681A687B6913407B610DE0BB686E
:1044F000022B05D17B685A687B6913407B6104E01D
:104500007B689A687B6913407B613B681B0CFB608E
:104510000122FB689A401300FB607B68DA69FB6844
:104520001340FB607B69002B07D0FB68002B04D095
:104530001323FB1801221A7003E01323FB18002237
:104540001A701323FB181B781800BD4606B080BDF7
:1045500080B584B000AF786039600023FB60002331
:10456000BB603B681B0CFB600122FB689A40130098
:10457000BB607B68BA681A62C046BD4604B080BDA5
:1045800080B584B002AF00F0CDF9FB1D00221A7097
:104590004BE0FB1D1A782D4913009B009B189B00D4
:1045A000CB180A33FA1D12781A70FB1D1A782749A6
:1045B00013009B009B189B00CB180B3301221A7031
:1045C000FB1D1A78214913009B009B189B00CB18F8
:1045D00010331F4A1A60FB1D1A781E4BD200D058A8
:1045E000FB1D1B781B4ADB00D31804331B88190002
:1045F000FEF742FF03001900FB1D1B78154ADB0084
:10460000D31806331B7899420AD1FB1D1A780F493B
:1046100013009B009B189B00CB18093301221A70D2
:10462000FB1D1A78FB1D01321A70FB1D1B78022B33
:10463000AFD9094B094800220092FF22052102F060
:1046400059FDC046BD4602B080BDC046D80000201E
:104650009546000824000020C5480008188E000870
:1046600080B582B000AF02003960FB1D1A70FB1DDF
:104670001B78032B08D83B68002B05D0FB1D1A784C
:10468000034B92003968D150C046BD4602B080BD90
:104690001401002090B585B000AF78607B68FB60A6
:1046A0000B243B19FA68927A1A70FB68DB7A002BAC
:1046B00000D1FEE03B191A78804BD200D0583B194C
:1046C0001B787E4ADB00D31804331B881900FEF7E1
:1046D000D3FE030019003B191B78784ADB00D3187E
:1046E00006331B7899420AD1FB685B7BFF2B13D002
:1046F000FB685B7B0133DAB2FB685A730CE0FB6842
:104700001B7BFF2B05D0FB681B7B0133DAB2FB68F8
:104710001A73FB6800225A73FB681B7B092B5ED956
:10472000FB685B7A012B1AD1FB6800225A72644B3A
:104730001B68002B0DD0FB68DB7A1A0002231340A4
:1047400007D05F4B1B680B22BA18127801211000AA
:104750009847FB681B7B1A00FB681A603FE0FB6808
:104760001B685A1CFB681A60FB681B684F2B36D904
:10477000FB685B68002B14D0514BDB68002B28D002
:10478000FB68DB7A1A000123134022D04C4BDA6815
:10479000FB685B6899B20B23FB181B7818009047E5
:1047A00017E0474B5B68002B13D0FB68DB7A1A00DD
:1047B000012313400DD0FB681B7A002B09D0404B1E
:1047C0005B68FA68127A91B20B22BA18127810005C
:1047D0009847FB6800225A60FB6800221A72FB6847
:1047E0005B7B092B65D9FB6800221A73FB685B7A37
:1047F000002B20D1FB6801225A72314B1B68002B21
:104800000DD0FB68DB7A1A000223134007D02C4B33
:104810001B680B22BA181278002110009847FB6819
:104820005B7B1A00FB681A60FB681B7A0133DAB203
:10483000FB681A723DE0FB681B685A1CFB681A6033
:10484000FB681B68772B34D9FB6800221A72FB685F
:104850001A68FB685A60FB685B68782B15D0FB68A8
:104860005B68C82B11D0FB685A6896239B009A425C
:104870000BD0FB685A68FA239B009A4205D0FB686C
:104880005A68FA23DB009A4213D10D4B9B68002B28
:104890000FD0FB68DB7A1A000123134009D0084BC4
:1048A0009A68FB685B6899B20B23FB181B781800A9
:1048B0009047C046BD4605B090BDC04624000020CC
:1048C0001401002090B585B000AF78600F23FB186D
:1048D00000221A701AE00F203B181A7810491300B2
:1048E0009B009B189B00CB181033196804003B18E1
:1048F0001A7813009B009B189B00094A9B1818000C
:1049000088473B191A783B1901321A700F23FB189C
:104910001B78022BDFD9C046C046BD4605B090BD0E
:10492000D800002080B582B000AF80239B02012117
:104930001800FFF707F88023DB0301211800FFF7B9
:1049400001F83B0000221A713B0003225A713B0020
:104950000122DA713B00802212021A603A00902391
:10496000DB0511001800FEF7F3FC3B00C0221A60C3
:104970003B00044A19001000FEF7EAFCC046BD46A1
:1049800002B080BD0014004880B500AF0C4B190088
:104990000020FFF765FE0B4B19000120FFF760FEBA
:1049A000094B19000220FFF75BFE084B190003209A
:1049B000FFF756FEFFF7E4FDC046BD4680BDC0468A
:1049C000D1490008174A0008AB4A0008354B0008D7
:1049D00080B584B000AF0200FB1D1A703B1D0A1C9D
:1049E0001A803B1D1B88002B05D10F23FB18FA1DD5
:1049F00012781A7005E00F23FB18FA1D12780332A3
:104A00001A700F23FB181B78180002F085FAC046B5
:104A1000BD4604B080BD80B584B000AF0200FB1D70
:104A20001A703B1D0A1C1A803B1D1B88012B06D1E6
:104A30000F23FB18FA1D127806321A702AE03B1D6C
:104A40001B88022B06D10F23FB18FA1D127809329E
:104A50001A701FE03B1D1B88032B06D10F23FB1888
:104A6000FA1D12780C321A7014E03B1D1B88042BBF
:104A700006D10F23FB18FA1D12780F321A7009E0C5
:104A80003B1D1B88052B0CD10F23FB18FA1D127838
:104A900012321A700F23FB181B78180002F03CFA30
:104AA00000E0C046BD4604B080BD80B584B000AF14
:104AB0000200FB1D1A703B1D0A1C1A803B1D1A8840
:104AC000FA23DB009A4206D10F23FB18FA1D127855
:104AD0001E321A7023E03B1D1A88FA239B009A426B
:104AE00006D10F23FB18FA1D12781B321A7016E03C
:104AF0003B1D1A8896239B009A4206D10F23FB1870
:104B0000FA1D127818321A7009E03B1D1B88C82B59
:104B10000CD10F23FB18FA1D127815321A700F23CF
:104B2000FB181B78180002F0F7F900E0C046BD46FC
:104B300004B080BD80B584B000AF0200FB1D1A70C8
:104B40003B1D0A1C1A803B1D1A88FA23DB009A427F
:104B500006D30F23FB18FA1D12782A321A7023E0AD
:104B60003B1D1A88FA239B009A4206D30F23FB1899
:104B7000FA1D127827321A7016E03B1D1A88962308
:104B80009B009A4206D30F23FB18FA1D1278243299
:104B90001A7009E03B1D1B88C72B0CD90F23FB188B
:104BA000FA1D127821321A700F23FB181B78180097
:104BB00002F0B2F900E0C046BD4604B080BD00007E
:104BC00080B500AF00F00AF800F02EF8024B012289
:104BD0001A70C046BD4680BD2401002080B584B057
:104BE00000AF80231B0101211800FEF7CBFE3B1D07
:104BF0002F221A803B1DC7225A603B1D00221A81BA
:104C00003B1D00225A803B1D064A19001000FFF789
:104C100037F8044B01211800FFF7B0F8C046BD4635
:104C200004B080BD002C014080B588B000AF802367
:104C30009B0201211800FEF785FE18217B188022B7
:104C400012011A607B1803225A717B1802221A7112
:104C50007B1800229A717A189023DB051100180046
:104C6000FEF776FB9023DB0502220B211800FEF7EE
:104C700044FC3B1D60221A803B1D01225A803B1DD3
:104C800004229A803B1D00229A813B1D0822DA8172
:104C90003B1D802252001A823B1D00225A823B1D7E
:104CA00000229A603B1D074A19001000FFF726FA00
:104CB000044B01211800FFF781F8C046BD4608B03B
:104CC00080BDC046002C0140B0B584B000AF0500E7
:104CD0000C0010001900BB1D2A1C1A803B1D221C51
:104CE0001A80BB1C021C1A803B000A1C1A800A2373
:104CF000FB18884A12881A802022BB18BA1812782A
:104D0000203A1A7024217B181B785B08DBB29AB218
:104D1000BB1D1B88D3189BB2013B9CB27B181B7830
:104D20009AB23B1D1B88D3189BB2013B9AB23B1D24
:104D30001988BB1D18881300220001F021F82823D0
:104D4000FB181B78002B62D10E23FB1800221A706F
:104D500054E02423FB181B780C2B10D12023FB18C4
:104D60001A780E23FB1818780F23F9186A4C1300D1
:104D70005B009B189B00E3181B5C0B700CE020236E
:104D8000FB1819780E23FB181A780F23FB186348B9
:104D9000090141188A5C1A700D23FB1800221A7051
:104DA0001CE00F23FB181B780122134005D0BB1C0D
:104DB0001B88180000F088FD04E03B001B881800E9
:104DC00000F082FD0F22BB18BA18127852081A7030
:104DD0000D217B181A787B1801321A702423FB18D6
:104DE0001B785B08DBB20D22BA1812789A42D8D32E
:104DF0000E217B181A787B1801321A700E23FA18CC
:104E00002423FB1812781B789A42A2D36DE00E235C
:104E1000FB1800221A7060E02423FB181B780C2B6F
:104E200010D12023FB181A780E23FB1818780F23B3
:104E3000F918394C13005B009B189B00E3181B5CAE
:104E40000B700CE02023FB1819780E23FB181A783E
:104E50000F23FB183148090141188A5C1A700D2391
:104E6000FB1800221A7028E02A4BBA1C12881A80FC
:104E70000F23FB181B780122134012D00D23FB18BF
:104E80001B789AB2BB1D1B88D31898B20E23FB184F
:104E90001B789AB23B1D1B88D3189BB2190000F0F7
:104EA00049FD0F22BB18BA18127852081A700D214A
:104EB0007B181A787B1801321A702423FB181B7890
:104EC0005B08DBB20D22BA1812789A42CCD30E21BD
:104ED0007B181A787B1801321A700E23FA182423D3
:104EE000FB1812781B789A4296D30A4B0A22BA18FA
:104EF00012881A800A4B1B88013B9AB2084B5B88C8
:104F0000013B9BB20021002000F03AFFC046BD46A5
:104F100004B0B0BD36010020388F0008AC93000803
:104F200028010020B0B584B000AF05000C001000CF
:104F30001900BB1D2A1C1A803B1D221C1A80BB1C99
:104F4000021C1A803B000A1C1A800A23FB18BA1D97
:104F500012881A800823FB183E221A800C23FB18A3
:104F600000221A80B7E00C203B181A88664913000B
:104F70001B019B185B005A5C3B6A1B789A4200D06D
:104F8000A3E03B181A88604913001B019B185B00C3
:104F9000CB1801331A783B6A01331B789A4200D050
:104FA00093E0BB1D1B880F339AB23B1D1B880F3348
:104FB0009CB23B1D1988BB1D1888230000F0E0FE41
:104FC0000F23FB1800221A7079E00E23FB18002231
:104FD0001A7069E02423FB181B78002B23D10C23C3
:104FE000FB181A880F23FB181978474813001B0178
:104FF0009B185B00C3185B1802331B7819000E2343
:10500000FB181B7880221A4113000B4005D0BB1CF3
:105010001B88180000F058FC40E03B001B8818007B
:1050200000F052FC3AE0394BBA1C12881A800C236B
:10503000FB181A880F23FB181978334813001B013B
:105040009B185B00C3185B1802331B7819000E23F2
:10505000FB181B7880221A4113000B4007D03B1D20
:105060001A88BB1D1B881100180000F063FCBB1DD3
:105070001A88BB1D01321A80BB1D1A880A217B18B1
:105080001B88D31A102B09D1BB1D7A1812881A80DD
:105090003B1D1A883B1D01321A800AE00E217B1845
:1050A0001A787B1801321A700E23FB181B78072B15
:1050B00090D90F217B181A787B1801321A700F23B0
:1050C000FB181B781F2B00D87FE70C217B181A8850
:1050D0007B1801321A800C23FA180823FB18128857
:1050E0001B889A4200D23EE7094B1B88013B9AB2CB
:1050F000074B5B88013B9BB20021002000F040FE83
:10510000C046BD4604B0B0BD9C99000836010020E1
:1051100028010020B0B584B000AF05000C001000DD
:105120001900BB1D2A1C1A803B1D221C1A80BB1CA7
:10513000021C1A803B000A1C1A800A23FB18BA1DA5
:1051400012881A800823FB1807221A800C23FB18E8
:1051500000221A80AFE00C203B181A88624B4A21CB
:105160004A43D25C3B6A1B789A4200D09DE03B18D0
:105170001B885D4A4A214B43D31801331A783B6A96
:1051800001331B789A4200D08FE0BB1D1B88173378
:105190009AB23B1D1B8817339CB23B1D1988BB1D5F
:1051A0001888230000F0ECFD0F23FB1800221A7072
:1051B00075E00E23FB1800221A7065E02423FB180B
:1051C0001B78002B21D10C23FB181A880F23FB1806
:1051D0001B7845494A2042438A18D31802331B786A
:1051E00019000E23FB181B7880221A4113000B4074
:1051F00005D0BB1C1B88180000F066FB3EE03B009E
:105200001B88180000F060FB38E0384BBA1C12888D
:105210001A800C23FB181A880F23FB181B783249BD
:105220004A2042438A18D31802331B7819000E23F0
:10523000FB181B7880221A4113000B4007D03B1D3E
:105240001A88BB1D1B881100180000F073FBBB1DE2
:105250001A88BB1D01321A80BB1D1A880A217B18CF
:105260001B88D31A182B09D1BB1D7A1812881A80F3
:105270003B1D1A883B1D01321A800AE00E217B1863
:105280001A787B1801321A700E23FB181B78072B33
:1052900094D90F217B181A787B1801321A700F23CA
:1052A000FB181B78472B00D883E70C217B181A8842
:1052B0007B1801321A800C23FA180823FB18128875
:1052C0001B889A4200D246E7094B1B88013B9AB2E1
:1052D000074B5B88013B9BB20021002000F050FD92
:1052E000C046BD4604B0B0BDD8A1000836010020BC
:1052F00028010020B0B584B000AF05000C001000FC
:105300001900BB1D2A1C1A803B1D221C1A80BB1CC5
:10531000021C1A803B000A1C1A800A23FB18BA1DC3
:1053200012881A800823FB1804221A800C23FB1809
:1053300000221A80B8E00C203B181A886749130035
:105340009B019B185B005A5C3B6A1B789A4200D019
:10535000A4E03B181A88614913009B019B185B006D
:10536000CB1801331A783B6A01331B789A4200D07C
:1053700094E0BB1D1B881F339AB23B1D1B881F3353
:105380009CB23B1D1988BB1D1888230000F0F8FC57
:105390000F23FB1800221A7079E00E23FB1800225D
:1053A0001A7069E02423FB181B78002B23D10C23EF
:1053B000FB181A880F23FB181978484813009B0123
:1053C0009B185B00C3185B1802331B7819000E236F
:1053D000FB181B7880221A4113000B4005D0BB1C20
:1053E0001B88180000F070FA40E03B001B88180092
:1053F00000F06AFA3AE03A4BBA1C12881A800C2381
:10540000FB181A880F23FB181978344813009B01E6
:105410009B185B00C3185B1802331B7819000E231E
:10542000FB181B7880221A4113000B4007D03B1D4C
:105430001A88BB1D1B881100180000F07BFABB1DE9
:105440001A88BB1D01321A80BB1D1A880A217B18DD
:105450001B88D31A202B09D1BB1D7A1812881A80F9
:105460003B1D1A883B1D01321A800AE00E217B1871
:105470001A787B1801321A700E23FB181B78072B41
:1054800090D90F217B181A787B1801321A700F23DC
:10549000FB181B785BB2002B00DB7EE70C217B182E
:1054A0001A887B1801321A800C23FA180823FB187B
:1054B00012881B889A4200D23DE70A4B1B88013BA9
:1054C0009AB2084B5B88013B9BB20021002000F0A0
:1054D00057FCC046BD4604B0B0BDC046E0A30008BE
:1054E0003601002028010020F0B589B004AF050086
:1054F0000C0010001900BB1D2A1C1A803B1D221C29
:105500001A80BB1C021C1A803B000A1C1A800C2348
:10551000FB18BA1D12881A800F23FB1800221A707C
:1055200000E10F243B191B78002B00D089E0BB1D44
:105530001A88824B1B881900242008254319DB197F
:105540001B785B08DBB2CB1A9A4200DDF0E03B1D12
:105550001A887A4B5B8819004319DB191B78CB1A20
:105560009A4200DDE4E0BB6A1B78802B03D93B192B
:1055700001221A70D6E0BB6A1B780D2B13D12423AD
:1055800008229B18DB191B7899B23B1D3A1D128823
:105590008A181A80BB1D0C22BA1812881A80BB6A9E
:1055A0000133BB6249E0242308269B19DB191B78D1
:1055B000102B1BD9BB6A1B783A001588BA1C1488BB
:1055C0003A1D1188BA1D108828229219D219127812
:1055D00002921022019200932B002200FFF774FB2D
:1055E000BB1DBA1D128808321A8026E0BB6A1B78E0
:1055F0003A001588BA1C14883A1D1188BA1D108803
:10560000282208269219D2191278029224260822FA
:10561000B218D2191278019200932B002200FFF7E2
:1056200053FB0823F318DB191B785B08DBB299B234
:10563000BB1DBA1D12888A181A80BB6A0133BB626F
:1056400070E0BB1D1A883D4B1B88190024200824DC
:105650000319DB191B78CB1A9A4200DD6AE03B1D67
:105660001A88364B5B8819000319DB191B78CB1A93
:105670009A425FDC0F23FB1800221A7025000319E1
:10568000DB191B78202B12D13B001C88BB1C1A880D
:105690003B1D1988BB1D188828235B19DB191B7853
:1056A0000193BB6A00932300FFF724FE2CE0242320
:1056B00008255B19DB191B78182B12D13B001C88BD
:1056C000BB1C1A883B1D1988BB1D188828235B1931
:1056D000DB191B780193BB6A00932300FFF71AFDC7
:1056E00012E03B001C88BB1C1A883B1D1988BB1D9F
:1056F0001888282308255B19DB191B780193BB6ADE
:1057000000932300FFF70EFCBB6A0233BB62242325
:1057100008229B18DB191B7899B2BB1DBA1D128891
:105720008A181A80BB6A1B78002B00D0F9E602E0C9
:10573000C04600E0C046BD4605B0F0BD28010020CF
:10574000B0B588B004AF05000C0010001900BB1DF7
:105750002A1C1A803B1D221C1A80BB1C021C1A80AA
:105760003B000A1C1A803B6A1800FAF7CDFC0200C5
:105770000E203B181A80164B1B8819003B181B88FB
:105780002422BA1812785208D2B25343CB1A00D549
:1057900001335B101A000C203B181A803B001C8858
:1057A000BB1C1A883B1D19883B1818882823FB1836
:1057B0001B7802932423FB181B7801933B6A009308
:1057C0002300FFF791FEC046BD4604B0B0BDC04601
:1057D0002801002080B582B000AF0200FB1D1A70C6
:1057E00080235B010E4A19001000FDF777FE80232D
:1057F000DB010B4A19001000FDF770FEFB1D1B7842
:10580000084A1900100000F021FC8023DB01044A43
:1058100019001000FDF753FEC046BD4602B080BD22
:10582000000400480030014080B582B000AF0200A3
:10583000FB1D1A7080235B010E4A19001000FDF752
:105840003EFE8023DB010B4A19001000FDF746FEE7
:10585000FB1D1B78084A1900100000F0F7FB80239D
:10586000DB01044A19001000FDF729FEC046BD46C1
:1058700002B080BD000400480030014080B582B015
:1058800000AF0200FB1D1A703B1D0A1C1A80FB1D95
:105890001B781800FFF79EFF3B1D1B88DBB218002A
:1058A000FFF7C2FFC046BD4602B080BD80B500AF65
:1058B000044B1B89DBB21800FFF78CFFC046BD46C6
:1058C00080BDC0462801002080B582B000AF020034
:1058D000BB1D1A8080235B01144A19001000FDF7DC
:1058E000EEFD8023DB01114A19001000FDF7F6FDE3
:1058F000BB1D1B881B0A9BB2DBB20D4A19001000AE
:1059000000F0A4FBBB1D1B88DBB2094A1900100084
:1059100000F09CFB8023DB01044A19001000FDF716
:10592000CEFDC046BD4602B080BDC0460004004862
:105930000030014080B582B000AF0200BB1D1A806C
:105940003B1D0A1C1A803B1D1A88BB1D1B881100B9
:10595000180000F075FA044B1B881800FFF7B4FF1D
:10596000C046BD4602B080BD3601002080B584B07F
:1059700000AF0200BB1D1A80204B1B88013B9AB26E
:105980001E4B5B88013B9BB20021002000F0F8F920
:1059900080235B011A4A19001000FDF790FD802357
:1059A000DB01174A19001000FDF798FD0023FB608A
:1059B00013E00023BB6007E0BB1D1B881800FFF746
:1059C00083FFBB680133BB600C4B1B881A00BB68AC
:1059D0009342F1D3FB680133FB60084B5B881A00EC
:1059E000FB689342E5D38023DB01054A19001000D0
:1059F000FDF765FDC046BD4604B080BD280100200E
:105A000000040048B0B586B000AF05000C001000DF
:105A10001900BB1D2A1C1A803B1D221C1A80BB1CAE
:105A2000021C1A803B000A1C1A80BA1CBB1D12887B
:105A30001B88D31A9AB20E23FB18013A1A803A0037
:105A40003B1D12881B88D31A9AB20C23FB18013A0B
:105A50001A803B001C88BB1C1A883B1D1988BB1D83
:105A60001888230000F08CF980235B01204A19007C
:105A70001000FDF724FD8023DB011D4A19001000F2
:105A8000FDF72CFD00237B6114E000233B6108E05F
:105A90002823FB181B881800FFF716FF3B6901330A
:105AA0003B610E23FB181B883A699A42F0D37B694D
:105AB00001337B610C23FB181B887A699A42E4D37B
:105AC0008023DB010A4A19001000FDF7F8FC094B9E
:105AD0001B88013B9AB2074B5B88013B9BB20021BC
